:1000000075A4007591007584007A00120114208196
:100010000312006820A00312008020A31012011414
:10002000C003120171D0031200F51200BB20801032
:10003000120114C0031201DCD0031200F51200BB40
:1000400020A210120114C003120261D0031200F5A5
:100050001200BB208310120114C003120262D003ED
:100060001200F51200BB80A61200B23081FD0AEA30
:100070005410600512009A7A001200BB1200B222DE
:100080001200B230A0FDC2A41AEA5480600512002A
:100090009A7A0F1200BB1200B2227B80D297120014
:1000A000A9C2971200A9DBF4227D077EFFDEFEDDE8
:1000B000FA227CFF7BFFDBFEDCFA22EA54016004BB
:1000C000C2A48002D2A4EA54026004C2868002D292
:1000D00086EA54046004C2858002D285EA5408602E
:1000E00004C2968002D296227C0A7DFF7EFFDEFE4D
:1000F000DDFADCF6221201331200E812014112008F
:10010000E812013A12014F1200E81201481200E809
:100110001201562212014F1200E81201411200E8AA
:100120001201561201331200E81201481200E812BF
:10013000013A22C2A4C286C2A522D2A4D286D2A5E6
:1001400022C285C296C28722D285D296D28722C287
:10015000A7C284C2A622D2A7D284D2A62212013A72
:100160001201481201562212013312014112014FAD
:10017000227F0820A3031201AE2080031201BB20BE
:10018000A2031201D52083031201D920A10122C2AA
:08019000A41201C8D2A4C2862A
:100198001201C8D286C2961201C8D296C28512012F
:1001A800C8D28580C62220A40912009A208503128D
:1001B800009A2220860912009A20960312009A2299
:1001C800EFFC7DFF7EFFDEFEDDFADCF622BFFF00DE
:1001D80022DF0022C2A4C286C2A5C285D296C287E7
:1001E800C2A7C284C2A61200E81200E81200E812F0
:1001F800015D1200E8C2A4C286C2A5D285C296C219
:1002080087C2A7C284C2A61200E81200E81200E85A
:1002180012015D1200E8C2A4C286C2A5C285C296B8
:10022800C287C2A7D284C2A61200E81200E8120050
:10023800E812015D1200E8C2A4C286C2A5C285D236
:1002480096D287C2A7C284C2A61200E81200E8129A
:0B02580000E812015D1200E8222222E3
:00000001FF
